{"contracts/Calculator.sol":{"Calculator":{"abi":[{"inputs":[],"name":"Add","outputs":[{"internalType":"uint256","name":"Equals","type":"uint256"}],"stateMutability":"view","type":"function"},{"inputs":[],"name":"totalscore","outputs":[{"internalType":"uint256","name":"","type":"uint256"}],"stateMutability":"view","type":"function"}],"evm":{"bytecode":{"linkReferences":{},"object":"608060405260086001556002805534801561001957600080fd5b50610161806100296000396000f3fe608060405234801561001057600080fd5b50600436106100365760003560e01c806367e068581461003b578063a849fe9114610059575b600080fd5b610043610077565b60405161005091906100ad565b60405180910390f35b61006161008e565b60405161006e91906100ad565b60405180910390f35b600060025460015461008991906100f7565b905090565b60005481565b6000819050919050565b6100a781610094565b82525050565b60006020820190506100c2600083018461009e565b92915050565b7f4e487b7100000000000000000000000000000000000000000000000000000000600052601160045260246000fd5b600061010282610094565b915061010d83610094565b9250828201905080821115610125576101246100c8565b5b9291505056fea26469706673582212201423ccd0862ff396a9bf5ae4bce0b1300dd6d4e723b34818c2b948f8889e685e64736f6c63430008110033","opcodes":"PUSH1 0x80 PUSH1 0x40 MSTORE PUSH1 0x8 PUSH1 0x1 SSTORE PUSH1 0x2 DUP1 SSTORE CALLVALUE DUP1 ISZERO PUSH2 0x19 JUMPI PUSH1 0x0 DUP1 REVERT JUMPDEST POP PUSH2 0x161 DUP1 PUSH2 0x29 PUSH1 0x0 CODECOPY PUSH1 0x0 RETURN INVALID PUSH1 0x80 PUSH1 0x40 MSTORE CALLVALUE DUP1 ISZERO PUSH2 0x10 JUMPI PUSH1 0x0 DUP1 REVERT JUMPDEST POP PUSH1 0x4 CALLDATASIZE LT PUSH2 0x36 JUMPI PUSH1 0x0 CALLDATALOAD PUSH1 0xE0 SHR DUP1 PUSH4 0x67E06858 EQ PUSH2 0x3B JUMPI DUP1 PUSH4 0xA849FE91 EQ PUSH2 0x59 JUMPI JUMPDEST PUSH1 0x0 DUP1 REVERT JUMPDEST PUSH2 0x43 PUSH2 0x77 JUMP JUMPDEST PUSH1 0x40 MLOAD PUSH2 0x50 SWAP2 SWAP1 PUSH2 0xAD JUMP JUMPDEST PUSH1 0x40 MLOAD DUP1 SWAP2 SUB SWAP1 RETURN JUMPDEST PUSH2 0x61 PUSH2 0x8E JUMP JUMPDEST PUSH1 0x40 MLOAD PUSH2 0x6E SWAP2 SWAP1 PUSH2 0xAD JUMP JUMPDEST PUSH1 0x40 MLOAD DUP1 SWAP2 SUB SWAP1 RETURN JUMPDEST PUSH1 0x0 PUSH1 0x2 SLOAD PUSH1 0x1 SLOAD PUSH2 0x89 SWAP2 SWAP1 PUSH2 0xF7 JUMP JUMPDEST SWAP1 POP SWAP1 JUMP JUMPDEST PUSH1 0x0 SLOAD DUP2 JUMP JUMPDEST PUSH1 0x0 DUP2 SWAP1 POP SWAP2 SWAP1 POP JUMP JUMPDEST PUSH2 0xA7 DUP2 PUSH2 0x94 JUMP JUMPDEST DUP3 MSTORE POP POP JUMP JUMPDEST PUSH1 0x0 PUSH1 0x20 DUP3 ADD SWAP1 POP PUSH2 0xC2 PUSH1 0x0 DUP4 ADD DUP5 PUSH2 0x9E JUMP JUMPDEST SWAP3 SWAP2 POP POP JUMP JUMPDEST PUSH32 0x4E487B7100000000000000000000000000000000000000000000000000000000 PUSH1 0x0 MSTORE PUSH1 0x11 PUSH1 0x4 MSTORE PUSH1 0x24 PUSH1 0x0 REVERT JUMPDEST PUSH1 0x0 PUSH2 0x102 DUP3 PUSH2 0x94 JUMP JUMPDEST SWAP2 POP PUSH2 0x10D DUP4 PUSH2 0x94 JUMP JUMPDEST SWAP3 POP DUP3 DUP3 ADD SWAP1 POP DUP1 DUP3 GT ISZERO PUSH2 0x125 JUMPI PUSH2 0x124 PUSH2 0xC8 JUMP JUMPDEST JUMPDEST SWAP3 SWAP2 POP POP JUMP INVALID LOG2 PUSH5 0x6970667358 0x22 SLT KECCAK256 EQ 0x23 0xCC 0xD0 DUP7 0x2F RETURN SWAP7 0xA9 0xBF GAS 0xE4 0xBC 0xE0 0xB1 ADDRESS 0xD 0xD6 0xD4 0xE7 0x23 0xB3 BASEFEE XOR 0xC2 0xB9 BASEFEE 0xF8 DUP9 SWAP15 PUSH9 0x5E64736F6C63430008 GT STOP CALLER "},"methodIdentifiers":{"Add()":"67e06858","totalscore()":"a849fe91"}}}}}