{
  "_format": "hh-sol-artifact-1",
  "contractName": "Calculator",
  "sourceName": "contracts/Calculator.sol",
  "abi": [
    {
      "inputs": [],
      "name": "Add",
      "outputs": [
        {
          "internalType": "uint256",
          "name": "Equals",
          "type": "uint256"
        }
      ],
      "stateMutability": "view",
      "type": "function"
    },
    {
      "inputs": [],
      "name": "totalscore",
      "outputs": [
        {
          "internalType": "uint256",
          "name": "",
          "type": "uint256"
        }
      ],
      "stateMutability": "view",
      "type": "function"
    }
  ],
  "bytecode": "0x608060405260086001556002805534801561001957600080fd5b50610161806100296000396000f3fe608060405234801561001057600080fd5b50600436106100365760003560e01c806367e068581461003b578063a849fe9114610059575b600080fd5b610043610077565b60405161005091906100ad565b60405180910390f35b61006161008e565b60405161006e91906100ad565b60405180910390f35b600060025460015461008991906100f7565b905090565b60005481565b6000819050919050565b6100a781610094565b82525050565b60006020820190506100c2600083018461009e565b92915050565b7f4e487b7100000000000000000000000000000000000000000000000000000000600052601160045260246000fd5b600061010282610094565b915061010d83610094565b9250828201905080821115610125576101246100c8565b5b9291505056fea26469706673582212201423ccd0862ff396a9bf5ae4bce0b1300dd6d4e723b34818c2b948f8889e685e64736f6c63430008110033",
  "linkReferences": {},
  "deployedLinkReferences": {}
}